:100000000C9462000C9418040C94F1030C948A0074
:100010000C948A000C948A000C948A000C948A0038
:100020000C948A000C948A000C948A000C948A0028
:100030000C948A000C948A000C948A000C948A0018
:100040000C94A7030C948A000C9465040C943F0450
:100050000C948A000C948A000C948A000C948A00F8
:100060000C948A000C948A000000000024002700F1
:100070002A0000000000250028002B0000000000DE
:1000800023002600290004040404040404040202DA
:100090000202020203030303030301020408102007
:1000A0004080010204081020010204081020000012
:1000B0000008000201000003040700000000000027
:1000C0000000020711241FBECFEFD8E0DEBFCDBF76
:1000D00012E0A0E0B1E0E8EEFEE002C005900D9273
:1000E000AC33B107D9F722E0ACE3B2E001C01D9216
:1000F000A13FB207E1F710E0C2E6D0E004C02197CB
:10010000FE010E946707C136D107C9F70E94970414
:100110000C9472070C940000833081F028F4813035
:1001200099F08230A1F008958730A9F08830B9F0B5
:100130008430D1F4809180008F7D03C08091800055
:100140008F7780938000089584B58F7702C084B53F
:100150008F7D84BD08958091B0008F7703C080911A
:10016000B0008F7D8093B0000895CF93DF93282F48
:1001700030E0F901E255FF4F8491F901E656FF4F57
:10018000D491F901EA57FF4FC491CC2391F081112A
:100190000E948C00EC2FF0E0EE0FFF1FE458FF4FA1
:1001A000A591B491EC91ED2381E090E021F480E001
:1001B00002C080E090E0DF91CF9108951F93CF932C
:1001C000DF93282F30E0F901E255FF4F8491F901C8
:1001D000E656FF4FD491F901EA57FF4FC491CC2363
:1001E000C1F0162F81110E948C00EC2FF0E0EE0F71
:1001F000FF1FEE58FF4FA591B4919FB7F8941111CE
:1002000004C08C91D095D82302C0EC91DE2BDC93F6
:100210009FBFDF91CF911F910895CF93DF9390E01F
:10022000FC01E656FF4F2491FC01EA57FF4F8491F1
:10023000882361F190E0880F991FFC01E859FF4F76
:10024000C591D491FC01EE58FF4FA591B491611175
:1002500009C09FB7F8948881209582238883EC9108
:100260002E230BC0623061F49FB7F8948881322F3F
:10027000309583238883EC912E2B2C939FBF06C04F
:100280008FB7F894E8812E2B28838FBFDF91CF9111
:1002900008953FB7F8948091500290915102A09137
:1002A0005202B091530226B5A89B05C02F3F19F00A
:1002B0000196A11DB11D3FBFBA2FA92F982F8827E6
:1002C000820F911DA11DB11DBC01CD0142E0660F41
:1002D000771F881F991F4A95D1F708958F929F9293
:1002E000AF92BF92CF92DF92EF92FF920E944901AC
:1002F0004B015C0180EDC82E87E0D82EE12CF12C5B
:100300000E944901DC01CB0188199909AA09BB099E
:10031000883E9340A105B10598F321E0C21AD108A7
:10032000E108F10888EE880E83E0981EA11CB11C3C
:10033000C114D104E104F10419F7FF90EF90DF90AC
:10034000CF90BF90AF909F908F9008950895CF92D7
:10035000DF92EF92FF920F931F93CF93DF936C0185
:100360007A018B01C0E0D0E0CE15DF0581F0D80125
:100370006D918D01D601ED91FC910190F081E02D00
:10038000C6010995892B11F02196EECF7E01C70198
:10039000DF91CF911F910F91FF90EF90DF90CF9061
:1003A0000895089580E090E00895FC01538D448DF8
:1003B000252F30E0842F90E0821B930B541710F010
:1003C000CF96089501970895FC01918D828D98171D
:1003D00061F0828DDF01A80FB11D5D968C91928D29
:1003E0009F5F9F73928F90E008958FEF9FEF089526
:1003F000FC01918D828D981731F0828DE80FF11DEF
:10040000858D90E008958FEF9FEF0895FC01918D09
:10041000228D892F90E0805C9F4F821B91098F7302
:100420009927089584E592E00E94060221E0892B35
:1004300009F420E0822F0895FC01848DDF01A80FCC
:10044000B11DA35ABF4F2C91848D90E001968F73FC
:100450009927848FA689B7892C93A089B1898C911B
:10046000837080648C93938D848D981306C002886A
:10047000F389E02D80818F7D80830895EF92FF9234
:100480000F931F93CF93DF93EC0181E0888F9B8DB7
:100490008C8D981305C0E889F989808185FD26C077
:1004A000F62E0B8D10E00F5F1F4F0F731127E02EFC
:1004B0008C8DE8120CC00FB607FCFACFE889F989D9
:1004C000808185FFF5CFCE010E941C02F1CF8B8D7C
:1004D000FE01E80FF11DE35AFF4FF0829FB7F89439
:1004E0000B8FEA89FB89808180620AC09FB7F894EC
:1004F000EE89FF896083E889F9898081837080644F
:1005000080839FBF81E090E0DF91CF911F910F9199
:10051000FF90EF900895CF93DF93EC01888D8823AF
:10052000C9F0EA89FB89808185FD05C0A889B98960
:100530008C9186FD0FC00FB607FCF5CF808185FF3B
:10054000F2CFA889B9898C9185FFEDCFCE010E94A9
:100550001C02E7CFDF91CF91089580E090E0892BD6
:1005600029F00E94120281110C94000008958091DC
:100570004002811117C086B18F718093050181E01F
:1005800090E090934A028093490210923F0280913A
:1005900005018F3139F080910501882319F081E040
:1005A00080934002089580914002811115C086B168
:1005B0008F718093050181E090E090934A028093CF
:1005C000490280933F02909105019F3129F090915B
:1005D00005019111809340020895CF93C82F80FDAB
:1005E00002C060E001C061E084E00E94DE00C1FD65
:1005F00002C060E001C061E085E00E94DE00C2FD53
:1006000002C060E001C061E086E0CF910C94DE00A2
:10061000009769F0FC0101900020E9F73197AF01E4
:10062000481B590BBC0184E592E00C94A70180E0C3
:1006300090E008958F929F92AF92BF920F931F9375
:10064000CF93DF93CDB7DEB7A1970FB6F894DEBF97
:100650000FBECDBF19A2423008F44AE08E010F5DF3
:100660001F4F842E912CA12CB12CA50194010E9426
:100670004507E62FB901CA0101501109EA3014F407
:10068000E05D01C0E95CD801EC93232B242B252BE2
:1006900061F7C8010E940803A1960FB6F894DEBF67
:1006A0000FBECDBFDF91CF911F910F91BF90AF9043
:1006B0009F908F900895CF93DF930E940803EC01E1
:1006C00088E191E00E9408038C0F9D1FDF91CF917C
:1006D0000895809144020E94ED0261E087E00E944B
:1006E000DE008BE191E00E9408036091460270E019
:1006F00080E090E04AE00E941A0388E191E00E94C5
:1007000008030E946E0160E087E00E94DE000E9404
:100710006E0180913C0281110BC080E197E29093C1
:1007200048028093470210924A02109249020895AB
:10073000109248021092470281E090E090934A02A2
:100740008093490208950E946D070C9437071F9209
:100750000F920FB60F9211242F933F938F939F9375
:10076000AF93BF9380914C0290914D02A0914E02A5
:10077000B0914F0230914B0223E0230F2D3720F42C
:100780000196A11DB11D05C026E8230F0296A11DEB
:10079000B11D20934B0280934C0290934D02A09385
:1007A0004E02B0934F028091500290915102A0915D
:1007B0005202B09153020196A11DB11D80935002C7
:1007C00090935102A0935202B0935302BF91AF9104
:1007D0009F918F913F912F910F900FBE0F901F907F
:1007E00018951F920F920FB60F9211242F933F93DB
:1007F0004F935F936F937F938F939F93AF93BF9329
:10080000EF93FF93E0910201F09103010995FF91AD
:10081000EF91BF91AF919F918F917F916F915F9178
:100820004F913F912F910F900FBE0F901F901895F1
:100830001F920F920FB60F9211242F933F934F9355
:100840005F936F937F938F939F93AF93BF93EF9338
:10085000FF93E0910001F09101010995FF91EF9163
:10086000BF91AF919F918F917F916F915F914F91C8
:100870003F912F910F900FBE0F901F9018951F92D0
:100880000F920FB60F9211242F933F934F935F93C4
:100890006F937F938F939F93AF93BF93EF93FF9348
:1008A00084E592E00E941C02FF91EF91BF91AF910D
:1008B0009F918F917F916F915F914F913F912F9178
:1008C0000F900FBE0F901F9018951F920F920FB6AA
:1008D0000F9211242F938F939F93EF93FF93E091A7
:1008E0006402F09165028081E0916A02F0916B02EE
:1008F00082FD12C0908180916D028F5F8F73209175
:100900006E02821751F0E0916D02F0E0EC5AFD4F5B
:10091000958F80936D0201C08081FF91EF919F912F
:100920008F912F910F900FBE0F901F901895789474
:1009300084B5826084BD84B5816084BD85B58260E4
:1009400085BD85B5816085BD80916E008160809395
:100950006E001092810080918100826080938100FE
:10096000809181008160809381008091800081600E
:10097000809380008091B10084608093B100809169
:10098000B00081608093B00080917A008460809391
:100990007A0080917A00826080937A0080917A0058
:1009A000816080937A0080917A00806880937A00D9
:1009B0001092C10062E082E00E940D0162E083E0DB
:1009C0000E940D0162E08EE00E940D0162E08FE066
:1009D0000E940D0162E080E10E940D0162E081E170
:1009E0000E940D0162E082E10E940D0162E083E15C
:1009F0000E940D0160E088E00E940D0188E00E94E5
:100A0000B500892B19F481E08093450280E090E0E5
:100A10000E942F0780934602882351F090E0409176
:100A2000450228E030E0241B31092817390744F437
:100A300081E08093460261E080E090E00E94A5039F
:100A400081E090E00E942F07823018F480933C02EE
:100A500007C010923C0260E081E090E00E94A50394
:100A6000C0914502809146028C0F815080934402D0
:100A70000E94ED0261E084E00E940D0161E085E0EA
:100A80000E940D0161E086E00E940D0160E087E0B8
:100A90000E94DE0061E087E00E940D0180E197E2A4
:100AA000909348028093470210924A0210924902A2
:100AB00088E090E08C1B910990933E0280933D0268
:100AC00080913C02813051F481E090E090934A02A1
:100AD00080934902109248021092470283ED92E0FF
:100AE0009093010180930001809169008C7F809335
:100AF0006900E89A87EB92E09093030180930201EA
:100B000080916900837F80936900E99AE091640293
:100B1000F091650282E08083E0916002F0916102D1
:100B20001082E0916202F09163028FEC8083109258
:100B30006C02E0916802F091690286E08083E091A6
:100B40006602F0916702808180618083E091660295
:100B5000F0916702808188608083E0916602F09165
:100B60006702808180688083E0916602F09167026D
:100B700080818F7D808385E391E00E945B0380917B
:100B80004502813019F481E691E002C089E791E0E5
:100B90000E945B0380E991E00E94080380913C027F
:100BA000813019F481E392E002C083E392E00E9475
:100BB0005B0385E291E00E9408036091460270E0C9
:100BC00080E090E04AE00E941A0388E191E00E94F0
:100BD0000803C1E08FE7E82EF12CCC24C394D12C7C
:100BE00020E1A22E27E2B22E30ED832E37E0932EA5
:100BF000D0E849E0742E55E0652E63E0562E0BE9EF
:100C00001FE08091490290914A02892B71F586B1CB
:100C10008F718F3149F0D0924A02C09249028FEB16
:100C200091E00E945B0321C08091470290914802AD
:100C3000181619064CF401979093480280934702C6
:100C4000C7010197F1F711C087ED91E00E945B03A6
:100C5000C093460261E080E090E00E94A50380918D
:100C60004502809344020E94690383E10E94B5001B
:100C7000019739F41092430290924202809241020D
:100C800026C0C093430280914102909142021816FF
:100C90001906ECF401979093420280934102892B4C
:100CA000B1F461E087E00E94DE0082EF91E00E94F3
:100CB0005B03B0924802A092470210924A0210923F
:100CC00049020E946E0160E087E00E94DE00809190
:100CD0004002882309F48EC08091050184FD03C081
:100CE000C09304011BC08091050180FD03C0509298
:100CF000040114C08091050181FD03C060920401CC
:100D00000DC08091050182FD04C087E0809304013D
:100D100005C08091050183FF7092040180913F021C
:100D2000811105C0809104018F5F8093040180913F
:100D300004018A3011F41092040182E192E00E94D1
:100D400008036091040170E080E090E04AE00E94B6
:100D50001A038CEC91E00E945B036091040166230E
:100D600019F1862F90E020913D0230913E02281724
:100D70003907DCF1809143028823B9F16093460280
:100D800080E090E00E94A503909146028091450288
:100D9000890F81508093440210923C0260E081E010
:100DA00090E00E94A5031EC0809143028823E9F0D1
:100DB000C093460261E080E090E00E94A50390911C
:100DC000460280914502890F815080934402C0936E
:100DD0003C0261E081E090E00E94A50387E192E09F
:100DE0000E945B030E94690302C0D0930401109229
:100DF000400202C0D0930401C8010197F1F70E949C
:100E0000AD02FFCEE4E5F2E01382128288EE93E0B9
:100E1000A0E0B0E084839583A683B7838AE091E065
:100E20009183808385EC90E09587848784EC90E0C3
:100E30009787868780EC90E0918B808B81EC90E0A7
:100E4000938B828B82EC90E0958B848B86EC90E088
:100E5000978B868B118E128E138E148E0895F999AE
:100E6000FECF92BD81BDF89A992780B50895262FAF
:100E7000F999FECF1FBA92BD81BD20BD0FB6F8947F
:100E8000FA9AF99A0FBE01960895A1E21A2EAA1BAA
:100E9000BB1BFD010DC0AA1FBB1FEE1FFF1FA2172A
:100EA000B307E407F50720F0A21BB30BE40BF50B27
:100EB000661F771F881F991F1A9469F760957095B0
:100EC000809590959B01AC01BD01CF010895EE0F77
:100ED000FF1F0590F491E02D099481E090E0F894D3
:100EE0000C947207F894FFCFA601A601801F0000A2
:100EF00000003E02A701D5018B020602E401F801C1
:100F00000D0A004368616E676520746F204B65723F
:100F10006E616C206E756D6265723A20000A433610
:100F200034204B6579626F61726420436F6E747216
:100F30006F6C6C6564204B65726E616C20537769D1
:100F40007463682076302E300053686F72742042CC
:100F50006F61726420636F6E666967757265642E77
:100F6000004C6F6E6720426F61726420636F6E6623
:100F70006967757265642E00456D707479204B65E4
:100F8000726E616C20736C6F7420283D7363616EA8
:100F90002061637469766974792920646574656376
:100FA00074696F6E3A20004B6579626F61726420DC
:100FB0007363616E2064657465637465642E004EAE
:100FC0006F206B6579626F617264207363616E205C
:100FD00064657465637465642E00526573746F7222
:100FE00065206B6579203D3E205265736574696E9E
:100FF000672074686520433634004B657920004BC8
:1010000065726E616C203120616E64207363616E65
:101010002074696D656F757420696E61637469769B
:10102000652E0000FFFFFFFFFFFFFFFFFFFFFFFF39
:10103000FFFFFFFFFFFFFFFFFFFFFFFFFFFFFFFFC0
:10104000FFFFFFFFFFFFFFFFFFFFFFFFFFFFFFFFB0
:10105000FFFFFFFFFFFFFFFFFFFFFFFFFFFFFFFFA0
:10106000FFFFFFFFFFFFFFFFFFFFFFFFFFFFFFFF90
:107E0000112484B714BE81FFF0D085E080938100F7
:107E100082E08093C00088E18093C10086E0809377
:107E2000C20080E18093C4008EE0C9D0259A86E02C
:107E300020E33CEF91E0309385002093840096BBD3
:107E4000B09BFECF1D9AA8958150A9F7CC24DD24C4
:107E500088248394B5E0AB2EA1E19A2EF3E0BF2EE7
:107E6000A2D0813461F49FD0082FAFD0023811F036
:107E7000013811F484E001C083E08DD089C08234E0
:107E800011F484E103C0853419F485E0A6D080C0E4
:107E9000853579F488D0E82EFF2485D0082F10E0AE
:107EA000102F00270E291F29000F111F8ED06801E7
:107EB0006FC0863521F484E090D080E0DECF843638
:107EC00009F040C070D06FD0082F6DD080E0C81688
:107ED00080E7D80618F4F601B7BEE895C0E0D1E017
:107EE00062D089930C17E1F7F0E0CF16F0E7DF06D8
:107EF00018F0F601B7BEE89568D007B600FCFDCFD4
:107F0000A601A0E0B1E02C9130E011968C91119780
:107F100090E0982F8827822B932B1296FA010C0160
:107F200087BEE89511244E5F5F4FF1E0A038BF0790
:107F300051F7F601A7BEE89507B600FCFDCF97BE46
:107F4000E89526C08437B1F42ED02DD0F82E2BD052
:107F50003CD0F601EF2C8F010F5F1F4F84911BD097
:107F6000EA94F801C1F70894C11CD11CFA94CF0C13
:107F7000D11C0EC0853739F428D08EE10CD085E9AC
:107F80000AD08FE07ACF813511F488E018D01DD067
:107F900080E101D065CF982F8091C00085FFFCCF94
:107FA0009093C60008958091C00087FFFCCF809118
:107FB000C00084FD01C0A8958091C6000895E0E648
:107FC000F0E098E1908380830895EDDF803219F02E
:107FD00088E0F5DFFFCF84E1DECF1F93182FE3DFCA
:107FE0001150E9F7F2DF1F91089580E0E8DFEE27F6
:107FF000FF270994FFFFFFFFFFFFFFFFFFFF0404C0
:00000001FF
